:1003A3005772697465204F4B0020202020202020A5
:0A03B300200052656164204F4B00EA
:100003001203D3750C05E4FBFA7D017F011203860D
:1000130012017A8F22E522B401150524E52470022A
:100023000523FBAA23750C057D017F01120386E5D9
:1000330022B40216E52415247002152314FBAA2307
:10004300750C057D017F01120386E5226403703C74
:10005300E523FD7C007F011203037F051203E77C88
:1000630000AD247F021203037F051203E77BFF7AAF
:100073000379A37D017F021203277FD01203E77B5D
:10008300FF7A0379AC7D017F02120327E522640422
:1000930060030200137F011202AAEF7F00FEC00675
:1000A300C0077F021202AAEFFDD0E02DF524D0E0B5
:1000B3003400F523750C05AB24FA7D017F0112038F
:1000C300867BFF7A0379B57D017F021203277FD0F8
:1000D3001203E77BFF7A0379AC7D017F02120327CA
:0300E30002001305
:1003E700AE071FEE600B007E027DC7DDFEDEFC80E0
:0103F700EF16
:0103F80022E2
:0603F900C2A58F80D2A70F
:0803FF007F027EEFDEFEDFFC51
:0104070022D2
:0A042000C2A61203F9C2A70203FFEF
:10034A00CFCDCFCECCCE1201257C007D0A1201255D
:04035A00ED2430FF5F
:0A035E00D2A61203F9C2A70203FFA2
:1003BD00AE07BE0104ED148006BE0209ED243F44D4
:0603CD0080FF1204202253
:1003D3007F381204207F0C1204207F061204207F32
:0403E30001020420EF
:0A042A00AC031203BDAF0402035E31
:060327008B088A09890A17
:10032D001203BDE4FDAB08AA09A90A8D82758300ED
:0C033D001200E6FF600612035E0D80E96E
:010349002291
:0C0277007F0AEA24FFFDE434FFFC7E0057
:080283008E0D8F0E8C0F8D1003
:10028B007F017E00E4FBEBC39510E50F6480F874EF
:0E029B008098500AAC0DAD0E1201130B80E8D6
:0102A9002232
:040386008A0A8B0B49
:10038A001203BDAA0CEAD39400400D120277AC0AFC
:08039A00AD0B12034A1A80EDBD
:0103A2002238
:1001CC001203BDC3EA64809480400B7F2B12035E44
:1001DC008A168B17800E7F2D12035EC3E49BF517D6
:1001EC00E49AF516AA15EAD39400400D120277ACE6
:0901FC0016AD1712034A1A80ED3A
:0102050022D6
:040206008A1A8B1BAA
:10020A001203BDAA1CEAD3940040297F1012027976
:10021A00AC1AAD1BCFCDCFCECCCE120125EF540FE9
:10022A00FEC3940AEE5004243080022437FF1203DE
:04023A005E1A80D1F7
:01023E00229D
:04023F008A1F8B2067
:100243001203BDAA21EAD394004028EA24FFFDE467
:1002530034FFFC7F027E00120283AC1FAD20CFCDA2
:10026300CFCECCCE120125EF54012430FF12035E12
:030273001A80D21C
:010276002265
:10017A00E4F50820B1107F141203E730B1FD7F14B3
:10018A001203E775080120B0107F141203E730B09C
:10019A00FD7F141203E775080220B2107F141203C0
:1001AA00E730B2FD7F141203E775080320B3107F0E
:1001BA00141203E730B3FD7F141203E7750804AF86
:0101CA00082C
:0101CB002211
:100303008F088C098D0A12043E7FA01202DA1204B0
:1003130008AF081202DA120408AF0A1202DA120452
:040323000802044781
:0202AA008F08BB
:1002AC0012043E7FA01202DA120408AF081202DA1E
:1002BC0012040812043E7FA11202DA12040812037F
:0D02CC00688F097F01120434120447AF0946
:0102D9002202
:09043E00D2A0D2A1C2A0C2A122E9
:07044700C2A0D2A1D2A02245
:0202DA00AD076E
:1002DC00E4FB7E007480A803088006CEA2E713CE50
:1002EC0013D8F8FFEDF582EF558224FF92A0D2A12E
:0602FC00C2A10BBB08DCEF
:0103020022D8
:10036800E4FFFED2A0D2A130A00DA80674800880B8
:0D03780002C313D8FC4207C2A10EBE08E666
:010385002255
:0A043400EF24FF92A0D2A1C2A12282
:0B040800D2A0D2A1A2A0E433FFC2A149
:0104130022C6
:03000000020414E3
:0C041400787FE4F6D8FD75812402000317
:1000E600BB010CE58229F582E5833AF583E02250CF
:1000F60006E92582F8E622BBFE06E92582F8E22219
:0D010600E58229F582E5833AF583E4932232
:10011300EF8DF0A4A8F0CF8CF0A428CE8DF0A42E00
:02012300FE22BA
:10012500BC000BBE0029EF8DF084FFADF022E4CCBE
:10013500F875F008EF2FFFEE33FEEC33FCEE9DEC87
:10014500984005FCEE9DFE0FD5F0E9E4CEFD22EDCD
:10015500F8F5F0EE8420D21CFEADF075F008EF2F17
:10016500FFED33FD4007985006D5F0F222C398FD08
:050175000FD5F0EA22A5
:00000001FF
