:02000300AD0747
:10000500E4FB7E007480A803088006CEA2E713CE29
:1000150013D8F8FFEDF582EF558224FF92B4D2B6DE
:0A002500C2B60BBB08DCD2B5C2B5B1
:01002F0022AE
:10003000AE05AC07AF06120003EC14FF7EFF747F21
:10004000A807088006CEA2E713CE13D8F8F5807F64
:080050000112007A7580FF2205
:10005800C2B5C2B67D017F011200307D027F021257
:1000680000307D037F031200307D047F04120030CE
:0200780080E224
:10007A00AE071FEE600B007E027DC7DDFEDEFC8050
:01008A00EF86
:01008B002252
:0300000002008C6F
:0C008C00787FE4F6D8FD7581070200586B
:00000001FF
