:06061A00C2A58F80D2A7EB
:080620007F027EEFDEFEDFFC2D
:0106280022AF
:0A063400C2A612061AC2A702062091
:10059100CFCDCFCECCCE1201387C007D0A120138EE
:0405A100ED2430FF16
:0A05A500D2A612061AC2A702062011
:1005CC00AE07BE0104ED148006BE0209ED243F44C3
:0605DC0080FF120634222C
:1005E2007F381206347F0C1206347F061206347FDF
:0405F20001020634C8
:0A063E00AC031205CCAF040205A5C1
:06056E008B158A168917A7
:100574001205CCE4FDAB15AA16A9178D827583006C
:0C0584001200F9FF60061205A50D80E9C9
:010590002248
:0C053B007F0AEA24FFFDE434FFFC7E0090
:080547008E1A8F1B8C1C8D1D08
:10054F007F017E00E4FBEBC3951DE51C6480F8740E
:0E055F008098500AAC1AAD1B1201260B80E8E2
:01056D00226B
:0405AF008A178B1804
:1005B3001205CCAA19EAD39400400D12053BAC17DF
:0805C300AD181205911A80ED3C
:0105CB00220D
:100490001205CCC3EA64809480400B7F2B1205A523
:1004A0008A238B24800E7F2D1205A5C3E49BF5249F
:1004B000E49AF523AA22EAD39400400D12053BAC3E
:0904C00023AD241205911A80ED10
:0104C9002210
:0404CA008A278B28CA
:1004CE001205CCAA29EAD3940040297F1012053DCB
:1004DE00AC27AD28CFCDCFCECCCE120138EF540FF6
:1004EE00FEC3940AEE5004243080022437FF120516
:0404FE00A51A80D1EA
:0105020022D6
:040503008A2C8B2D86
:100507001205CCAA2EEAD394004028EA24FFFDE482
:1005170034FFFC7F027E00120547AC2CAD2DCFCDFA
:10052700CFCECCCE120138EF54012430FF1205A5EF
:030537001A80D255
:01053A00229E
:1005F600AE071FEE600B007E027DC7DDFEDEFC80CF
:01060600EF04
:0106070022D0
:0A0648003F065B4F666D7D077F6F74
:060412008F088C098D0A21
:10041800780B7C007D007BFF7A0679487E007F0A96
:100428001200D3E50814B40800505490044175F044
:1004380003A4C58325F0C5837302045902045D0231
:100448000461020465020469020471020479020469
:1004580081D2A4800ED2A48012D2A48016D2A48005
:100468001AC2A4D2A3D2A28016C2A4D2A3C2A280C6
:100478000EC2A4C2A3D2A28006C2A4C2A3C2A274FE
:070488000B250AF8E6F580E0
:01048F00224A
:1006080050617373776F72643A004F4B2000455204
:0206180052008E
:0A06290001320002300000012F0032
:1002D7001205E27BFF7A0679087D017F0112056E20
:1002E70012018D8F32E532603CD3940A5029E52FF5
:1002F700C394045022AE30AF317C007D0A12012630
:100307008E308F31E53275F00A84E5F02531F5310D
:10031700E43530F530052F751904AB31AA307D016E
:100327007F021205AFE532640B7034E531B4290D55
:10033700E530B409087BFF7A06791280067BFF7ADD
:100347000679167D0E7F0112056EE4F530F531F55D
:100357002F751904AB31AA307D017F021205AFE575
:1003670032640C60030202E7F530F531F52F751999
:0F03770004AB31AA307D017F021205AF0202E70D
:10018D00E4F5157590FFC2932097107F141205F6B4
:10019D003097FD7F141205F67515012096107F140A
:1001AD001205F63096FD7F141205F675150520958E
:1001BD00107F141205F63095FD7F141205F6751596
:1001CD00092094107F141205F63094FD7F1412054A
:1001DD00F675150D7590FFC2922097107F141205BC
:1001ED00F63097FD7F141205F67515022096107FD7
:1001FD00141205F63096FD7F141205F675150620BE
:10020D0095107F141205F63095FD7F141205F675C5
:10021D00150A2094107F141205F63094FD7F1412E8
:10022D0005F675150E7590FFC2912097107F14126B
:10023D0005F63097FD7F141205F6751503209610FF
:10024D007F141205F63096FD7F141205F67515070D
:10025D002095107F141205F63095FD7F141205F6CA
:10026D0075150B2094107F141205F63094FD7F1434
:10027D001205F675150F7590FFC2902097107F141B
:10028D001205F63097FD7F141205F67515042096AC
:10029D00107F141205F63096FD7F141205F67515B4
:1002AD00082095107F141205F63095FD7F14120568
:1002BD00F675150C2094107F141205F63094FD7F01
:0902CD00141205F6751510AF15A9
:0102D6002205
:0300000002038672
:0C038600787FE4F6D8FD7581320203CDCB
:10000300E709F608DFFA8046E709F208DFFA803EDF
:1000130088828C83E709F0A3DFFA8032E309F608CC
:10002300DFFA8078E309F208DFFA807088828C8334
:10003300E309F0A3DFFA806489828A83E0A3F608E8
:10004300DFFA805889828A83E0A3F208DFFA804CC2
:1000530080D280FA80C680D4806980F28033801099
:1000630080A680EA809A80A880DA80E280CA803302
:1000730089828A83ECFAE493A3C8C582C8CCC5837A
:10008300CCF0A3C8C582C8CCC583CCDFE9DEE7804A
:100093000D89828A83E493A3F608DFF9ECFAA9F0C9
:1000A300EDFB2289828A83ECFAE0A3C8C582C8CC1F
:1000B300C583CCF0A3C8C582C8CCC583CCDFEADE38
:1000C300E880DB89828A83E493A3F208DFF980CC9A
:1000D30088F0EF60010E4E60C388F0ED2402B40493
:1000E3000050B9F582EB2402B4040050AF2323453A
:0600F3008223900053730C
:1000F900BB010CE58229F582E5833AF583E02250BC
:1001090006E92582F8E622BBFE06E92582F8E22205
:0D011900E58229F582E5833AF583E493221F
:10012600EF8DF0A4A8F0CF8CF0A428CE8DF0A42EED
:02013600FE22A7
:10013800BC000BBE0029EF8DF084FFADF022E4CCAB
:10014800F875F008EF2FFFEE33FEEC33FCEE9DEC74
:10015800984005FCEE9DFE0FD5F0E9E4CEFD22EDBA
:10016800F8F5F0EE8420D21CFEADF075F008EF2F04
:10017800FFED33FD4007985006D5F0F222C398FDF5
:050188000FD5F0EA2292
:100392000202D7E493A3F8E493A34003F68001F2A8
:1003A20008DFF48029E493A3F85407240CC8C3336C
:1003B200C4540F4420C8834004F456800146F6DF3B
:1003C200E4800B0102040810204080900629E47E9C
:1003D200019360BCA3FF543F30E509541FFEE49330
:1003E200A360010ECF54C025E060A840B8E493A3F7
:1003F200FAE493A3F8E493A3C8C582C8CAC583CA22
:10040200F0A3C8C582C8CAC583CADFE9DEE780BED9
:0106330000C6
:00000001FF
