:0300F40001080000
:10008F0020B129E508F4F5A07F141200E230B1FD8C
:10009F007F141200E2AF08EF3395E0FEEFF44E70DD
:1000AF0004F50880020508E508F4F5A020B0D1E5B5
:1000BF0008F4F5A07F141200E230B0FD7F14120097
:1000CF00E2E50870057508FF80021508E508F4F5EC
:0300DF00A080AD51
:1000E200AE071FEE600B007E027DC7DDFEDEFC80E8
:0100F200EF1E
:0100F30022EA
:03000000020003F8
:0C000300787FE4F6D8FD75810802004A01
:10000F0002008FE493A3F8E493A34003F68001F278
:10001F0008DFF48029E493A3F85407240CC8C333F2
:10002F00C4540F4420C8834004F456800146F6DFC1
:10003F00E4800B01020408102040809000F4E47E5D
:10004F00019360BCA3FF543F30E509541FFEE493B6
:10005F00A360010ECF54C025E060A840B8E493A37D
:10006F00FAE493A3F8E493A3C8C582C8CAC583CAA8
:10007F00F0A3C8C582C8CAC583CADFE9DEE780BE60
:0100F7000008
:00000001FF
