:10030D0012046B12000612040AEF7006120418EFA5
:10031D0060F41204718F2C1204748F2B1203538FFF
:03032D002D80E33D
:03001B000202E2FC
:0602E200C0E0C0F0C0D036
:1002E800758BA4758DFF052AE52A75F0648485F061
:0E02F8002AE52AC3952D5004D2908002C290B0
:07030600D0D0D0F0D0E032AE
:1003D900AE071FEE600B007E027DC7DDFEDEFC80EE
:0103E900EF24
:0103EA0022F0
:0603FB00C2A58F80D2A70D
:080401007F027EEFDEFEDFFC4E
:0104090022D0
:0A044800C2A61203FBC2A7020401C2
:10037400CFCDCFCECCCE1201AF7C007D0A1201AF1F
:04038400ED2430FF35
:0A038800D2A61203FBC2A702040173
:1003AF00AE07BE0104ED148006BE0209ED243F44E2
:0603BF0080FF1204482239
:1003C5007F381204487F0C1204487F061204487FC8
:0403D50001020448D5
:0A045200AC031203AFAF04020388ED
:060330008B328A33893490
:100336001203AFE4FDAB32AA33A9348D8275830074
:0C034600120170FF60061203880D80E9B0
:010352002288
:0C02AF007F0AEA24FFFDE434FFFC7E001F
:0802BB008E2E8F2F8C308D3147
:1002C3007F017E00E4FBEBC39531E5306480F87475
:0E02D3008098500AAC2EAD2F12019D0B80E8D2
:0102E10022FA
:040392008A1D8B1E17
:100396001203AFAA1FEAD39400400D1202AFAC1DA0
:0803A600AD1E1203741A80ED74
:0103AE00222C
:100204001203AFC3EA64809480400B7F2B120388EF
:100214008A198B1A800E7F2D120388C3E49BF51A6A
:10022400E49AF519AA18EAD39400400D1202AFAC6F
:0902340019AD1A1203741A80EDD1
:01023D00229E
:04023E008A228B2362
:100242001203AFAA24EAD3940040297F101202B10C
:10025200AC22AD23CFCDCFCECCCE1201AFEF540F17
:10026200FEC3940AEE5004243080022437FF1203A6
:04027200881A80D195
:010276002265
:040277008A278B281F
:10027B001203AFAA29EAD394004028EA24FFFDE435
:10028B0034FFFC7F027E001202BBAC27AD28CFCD22
:10029B00CFCECCCE1201AFEF54012430FF12038826
:0302AB001A80D2E4
:0102AE00222D
:0B043200D288C289D2A8D2AFD2B82273
:1003EB005389F0438901E4F58AF58CC28DC28C22C6
:0B043D00AD07AC068C8CAF058F8A2247
:09045C00AF8CEFFEAD8AEDFF222A
:06046500EF24FF928C223F
:06046B001204320203EB53
:0E040A00E50EB40106E4F50E7F01227F00220C
:0E041800E50CB40106E4F50C7F01227F002202
:03047100AF0B22AC
:03047400AF0A22AA
:0300030002001EDA
:10001E00C0E0C0F0C083C082C0D075D000C000C0A8
:10002E0001C002C003C004C005C006C007E51370BE
:10003E000CFFFE12043D7F011204658051E513642E
:10004E0001705112045C8E088F09E4FFFE12043D0C
:10005E00D3E50994A6E508942E4010E509948EE5A3
:10006E000894325006751302020155D3E509948C9B
:10007E00E50894264018E5099474E508942A500E74
:10008E00750C01E4FF12046575130002015575131A
:10009E0001020155E5136402600302015512045C6E
:1000AE008E088F09E4FFFE12043DD3E5099414E592
:1000BE00089402402BE50994FCE50894055021E5CF
:1000CE000D131313541F240FF8C000E6FFE50D5453
:1000DE0007FEF87401088002C333D8FCF45F803346
:1000EE00D3E5099426E5089406402FE509940EE51C
:1000FE0008940A5025E50D131313541F240FF8C04E
:10010E0000E6FFE50D5407FEF87401088002C333C4
:10011E00D8FC4FD000F6050D8006750D0075130145
:10012E00E50DC394204020E510F4B50F0FE512F451
:10013E00B51109850F0B85110A750E01E4FF120426
:10014E0065751300750D00D007D006D005D004D00C
:10015E0003D002D001D000D0D0D082D083D0F0D046
:02016E00E0327D
:10035300BF150BE535C3940A401474F6800CBF092E
:100363000DE535D3945A5006740A2535F535AF3566
:010373002267
:1000060053890F438910758BA4758DFFC28FD28ECD
:05001600D2ABD2AF22C5
:03000000020426D1
:0C042600787FE4F6D8FD75813502030DE7
:10017000BB010CE58229F582E5833AF583E0225044
:1001800006E92582F8E622BBFE06E92582F8E2228E
:0D019000E58229F582E5833AF583E49322A8
:10019D00EF8DF0A4A8F0CF8CF0A428CE8DF0A42E76
:0201AD00FE2230
:1001AF00BC000BBE0029EF8DF084FFADF022E4CC34
:1001BF00F875F008EF2FFFEE33FEEC33FCEE9DECFD
:1001CF00984005FCEE9DFE0FD5F0E9E4CEFD22ED43
:1001DF00F8F5F0EE8420D21CFEADF075F008EF2F8D
:1001EF00FFED33FD4007985006D5F0F222C398FD7E
:0501FF000FD5F0EA221B
:00000001FF
