:1000C8002030080000000000000000FF080808FFBA
:1000D800000E1515150800FE010200FE0102000EB3
:1000E80011110E00FD0000000000000000000000DB
:0300F80000000005
:10008F00120163E4F538E53804FFE5382539240813
:10009F00F8E6FD1201290538E538C3941840E70545
:1000AF003AE53AD3940540DBE4F53A0539E539D31F
:0900BF00942840CFE4F53980CA11
:10015100AE071FEE600B007E027DC7DDFEDEFC8078
:01016100EFAE
:01016200227A
:05016300C2B5C2B62286
:0200FC00AD074E
:1000FE00E4FB7E007480A803088006CEA2E713CE30
:10010E0013D8F8FFEDF582EF558224FF92B4D2B6E4
:0A011E00C2B60BBB08DCD2B5C2B5B7
:0101280022B4
:10012900AE05AC07AF061200FCEC14FF7EFF747F2E
:10013900A807088006CEA2E713CE13D8F8F5807F6A
:08014900011201517580FF2233
:03000000020003F8
:0C000300787FE4F6D8FD75813A02004ACF
:10000F0002008FE493A3F8E493A34003F68001F278
:10001F0008DFF48029E493A3F85407240CC8C333F2
:10002F00C4540F4420C8834004F456800146F6DFC1
:10003F00E4800B01020408102040809000C8E47E89
:10004F00019360BCA3FF543F30E509541FFEE493B6
:10005F00A360010ECF54C025E060A840B8E493A37D
:10006F00FAE493A3F8E493A3C8C582C8CAC583CAA8
:10007F00F0A3C8C582C8CAC583CADFE9DEE780BE60
:0100FB000004
:00000001FF
