:10021E00E4F50820B1107F141202E530B1FD7F1411
:10022E001202E575080120B0107F141202E530B0FD
:10023E00FD7F141202E575080220B2107F1412021F
:10024E00E530B2FD7F141202E575080320B3107F6E
:10025E00141202E530B3FD7F141202E5750804AFE7
:01026E000887
:01026F00226C
:0A02F7003F065B4F666D7D077F6FC9
:0601A0008F088C098D0A96
:1001A600780B7C007D007BFF7A0279F77E007F0A60
:1001B6001200EEE50814B4080050549001CF75F013
:1001C60003A4C58325F0C583730201E70201EB0290
:1001D60001EF0201F30201F70201FF020207020228
:1001E6000FD2A4800ED2A48012D2A48016D2A480EC
:1001F6001AC2A4D2A3D2A28016C2A4D2A3C2A2803B
:100206000EC2A4C2A3D2A28006C2A4C2A3C2A27472
:070216000B250AF8E6F58054
:01021D0022BE
:03030100011500E3
:1002700012000312021E8F17E517B401150515E5CC
:100280001575F0058485F015E515FD7C007F0112DC
:1002900001A0E5157002F518E515B4010375181EE7
:1002A000E515B40203751837E515B4030375185046
:0A02B000E515B404BE75186480B9AA
:03001B000202BA24
:1002BA00C0E0C0F0C0D0758BA4758DFF0516E51699
:1002CA0075F0648485F016E516C395185004D2902B
:0B02DA008002C290D0D0D0F0D0E03203
:1002E500AE071FEE600B007E027DC7DDFEDEFC80E3
:0102F500EF19
:0102F60022E5
:1000030053890F438910758BA4758DFFC28FD28ED0
:05001300D2ABD2AF22C8
:03000000020114E6
:0C011400787FE4F6D8FD75811802015BCD
:10001E00E709F608DFFA8046E709F208DFFA803EC4
:10002E0088828C83E709F0A3DFFA8032E309F608B1
:10003E00DFFA8078E309F208DFFA807088828C8319
:10004E00E309F0A3DFFA806489828A83E0A3F608CD
:10005E00DFFA805889828A83E0A3F208DFFA804CA7
:10006E0080D280FA80C680D4806980F2803380107E
:10007E0080A680EA809A80A880DA80E280CA8033E7
:10008E0089828A83ECFAE493A3C8C582C8CCC5835F
:10009E00CCF0A3C8C582C8CCC583CCDFE9DEE7802F
:1000AE000D89828A83E493A3F608DFF9ECFAA9F0AE
:1000BE00EDFB2289828A83ECFAE0A3C8C582C8CC04
:1000CE00C583CCF0A3C8C582C8CCC583CCDFEADE1D
:1000DE00E880DB89828A83E493A3F208DFF980CC7F
:1000EE0088F0EF60010E4E60C388F0ED2402B40478
:1000FE000050B9F582EB2402B4040050AF2323451F
:06010E00822390006E73D5
:10012000020270E493A3F8E493A34003F68001F283
:1001300008DFF48029E493A3F85407240CC8C333E0
:10014000C4540F4420C8834004F456800146F6DFAF
:10015000E4800B0102040810204080900301E47E3B
:10016000019360BCA3FF543F30E509541FFEE493A4
:10017000A360010ECF54C025E060A840B8E493A36B
:10018000FAE493A3F8E493A3C8C582C8CAC583CA96
:10019000F0A3C8C582C8CAC583CADFE9DEE780BE4E
:0103040000F8
:00000001FF
