:1001EC001203801204261203C58F311203D38F30F1
:1001FC00E5317004E53060EE12042C8F2F12042FC1
:10020C008F2EE52FFB7A007518027D017F011202FB
:10021C0068E52EFB7A007518027D047F01120268D6
:02022C0080C48C
:10039400AE071FEE600B007E027DC7DDFEDEFC8033
:0103A400EF69
:0103A5002235
:0603B600C2A58F80D2A752
:0803BC007F027EEFDEFEDFFC94
:0103C4002216
:0A040300C2A61203B6C2A70203BC92
:10032F00CFCDCFCECCCE1201977C007D0A12019794
:04033F00ED2430FF7A
:0A034300D2A61203B6C2A70203BC43
:10036A00AE07BE0104ED148006BE0209ED243F4427
:06037A0080FF12040322C3
:100380007F381204037F0C1204037F061204037FDC
:04039000010204035F
:0A040D00AC0312036AAF04020343BC
:06030C008B328A338934B4
:1003120012036AE4FDAB32AA33A9348D82758300DD
:0C032200120158FF60061203430D80E931
:01032E0022AC
:0C02D9007F0AEA24FFFDE434FFFC7E00F5
:0802E5008E198F1A8C1B8D1C71
:1002ED007F017E00E4FBEBC3951CE51B6480F87475
:0E02FD008098500AAC19AD1A1201850B80E8EA
:01030B0022CF
:04034D008A268B274A
:1003510012036AAA28EAD39400400D1202D9AC26EE
:08036100AD2712032F1A80EDF5
:010369002271
:10022E0012036AC3EA64809480400B7F2B1203434F
:10023E008A228B23800E7F2D120343C3E49BF5236A
:10024E00E49AF522AA21EAD39400400D1202D9AC09
:09025E0022AD2312032F1A80EDDA
:010267002274
:040268008A168B1750
:10026C0012036AAA18EAD3940040297F101202DB09
:10027C00AC16AD17CFCDCFCECCCE120197EF540F1D
:10028C00FEC3940AEE5004243080022437FF12037C
:04029C00431A80D1B0
:0102A000223B
:0402A1008A2B8B2CED
:1002A50012036AAA2DEAD394004028EA24FFFDE44C
:1002B50034FFFC7F027E001202E5AC2BAD2CCFCDC6
:1002C500CFCECCCE120197EF54012430FF12034359
:0302D5001A80D2BA
:0102D8002203
:0B03ED00D288C289D2A8D2AFD2B822B9
:1003A6005389F0438901E4F58AF58CC28DC28C220B
:0B03F800AD07AC068C8CAF058F8A228D
:09041700AF8CEFFEAD8AEDFF226F
:06042000EF24FF928C2284
:060426001203ED0203A623
:0E03C500E50EB40106E4F50E7F01227F002252
:0E03D300E50CB40106E4F50C7F01227F002248
:03042C00AF0B22F1
:03042F00AF0A22EF
:03000300020006F2
:10000600C0E0C0F0C083C082C0D075D000C000C0C0
:1000160001C002C003C004C005C006C007E51370D6
:100026000CFFFE1203F87F011204208051E51364D1
:100036000170511204178E088F09E4FFFE1203F8AF
:10004600D3E50994A6E508942E4010E509948EE5BB
:10005600089432500675130202013DD3E509948CCB
:10006600E50894264018E5099474E508942A500E8C
:10007600750C01E4FF12042075130002013D75138F
:100086000102013DE5136402600302013D120417FB
:100096008E088F09E4FFFE1203F8D3E5099414E5F0
:1000A600089402402BE50994FCE50894055021E5E7
:1000B6000D131313541F240FF8C000E6FFE50D546B
:1000C60007FEF87401088002C333D8FCF45F80335E
:1000D600D3E5099426E5089406402FE509940EE534
:1000E60008940A5025E50D131313541F240FF8C066
:1000F60000E6FFE50D5407FEF87401088002C333DD
:10010600D8FC4FD000F6050D8006750D007513015D
:10011600E50DC394204020E510F4B50F0FE512F469
:10012600B51109850F0B85110A750E01E4FF12043E
:1001360020751300750D00D007D006D005D004D069
:1001460003D002D001D000D0D0D082D083D0F0D05E
:02015600E03295
:030000000203E117
:0C03E100787FE4F6D8FD7581340201EC51
:10015800BB010CE58229F582E5833AF583E022505C
:1001680006E92582F8E622BBFE06E92582F8E222A6
:0D017800E58229F582E5833AF583E49322C0
:10018500EF8DF0A4A8F0CF8CF0A428CE8DF0A42E8E
:02019500FE2248
:10019700BC000BBE0029EF8DF084FFADF022E4CC4C
:1001A700F875F008EF2FFFEE33FEEC33FCEE9DEC15
:1001B700984005FCEE9DFE0FD5F0E9E4CEFD22ED5B
:1001C700F8F5F0EE8420D21CFEADF075F008EF2FA5
:1001D700FFED33FD4007985006D5F0F222C398FD96
:0501E7000FD5F0EA2233
:00000001FF
