:1000B30075A0FE1200D11200618F0AE50AB401F6A1
:0E00C300050BE50BC3940240EDE4F50B80E85D
:03000B0002000EE2
:0B000E00C0E0C0D075D000C000C007EB
:10001900758A66758CFC0509E5097002050864E8AE
:100029007004E50864037027F508F509E50B700D00
:10003900AFA07801EF08800123D8FDF5A0E50BB446
:0F004900010DAFA07801EF08800103D8FDF5A0ED
:09005800D007D000D0D0D0E03276
:1000D1005389F0438901758A66758CFCC28DD28C77
:0500E100D2A9D2AF22FC
:10006100E4F50C20B1107F141200E630B1FD7F14CD
:100071001200E6750C0120B0107F141200E630B0BA
:10008100FD7F141200E6750C0220B2107F141200DD
:10009100E630B2FD7F141200E6750C0320B3107F29
:1000A100141200E630B3FD7F141200E6750C04AFA4
:0100B1000C42
:0100B200222B
:1000E600AE071FEE600B007E027DC7DDFEDEFC80E4
:0100F600EF1A
:0100F70022E6
:030000000200F803
:0C00F800787FE4F6D8FD75810C0200B39F
:00000001FF
