:1009680020200020202D20202D0020203A20203A71
:01097800007E
:1005F8001204DFE518FB3395E0FA750C027D017FE4
:10060800011208FAE519FB3395E0FA750C027D042E
:100618007F011208FAE51AFB3395E0FA750C027DA2
:10062800077F011208FAE51BFB3395E0FA750C0207
:100638007D017F021208FAE51CFB3395E0FA750C80
:10064800027D047F021208FAE51DFB3395E0FA7576
:090658000C027D077F020208FA82
:10000E00E524B4020B0521E52175F0068485F02167
:10001E00E524640360030200E874182521F806D372
:10002E00E518648094E34003E4F518D3E519648081
:10003E00948C4003751901E51964016023E5196478
:10004E0003601DE51964056017E51964076011E585
:10005E00196408600BE519640A6005E519B40C0B08
:10006E00D3E51A6480949F404D8048E5196404607E
:10007E0011E5196406600BE51964096005E519B40C
:10008E000B0BD3E51A6480949E402B8026E519B4A1
:10009E000224E51875F004120429AFF0EF700BD3AB
:1000AE00E51A6480949D400E8009D3E51A6480940D
:1000BE009C4003751A01D3E51B648094984003E4B9
:1000CE00F51BD3E51C648094BB4003E4F51CD3E51B
:1000DE001D648094BB4003E4F51DE52464046003B5
:1000EE000201BB74182521F816C3E51864809480AC
:1000FE005003751863C3E519648094815003751914
:10010E000CE51964016023E5196403601DE51964AB
:10011E00056017E51964076011E5196408600BE5C1
:10012E0019640A6005E519B40C0EC3E51A648094CF
:10013E00815056751A1F8051E51964046011E51936
:10014E006406600BE51964096005E519B40B0EC36E
:10015E00E51A648094815031751A1E802CE519B40D
:10016E000227E51875F004120429AFF0EF700EC3E4
:10017E00E51A648094815011751A1D800CC3E51A1E
:10018E00648094815003751A1CC3E51B64809480AF
:10019E005003751B18C3E51C648094805003751CB6
:1001AE003BC3E51D648094805003751D3BE52170B3
:1001BE0013E523700F7BFF7A0979687D017F0112A9
:1001CE0008B98011E518FB3395E0FA750C027D0134
:1001DE007F011208FAE521B40113E523700F7BFFAE
:1001EE007A0979687D047F011208B98011E519FB3F
:1001FE003395E0FA750C027D047F011208FAE521B1
:10020E00B40213E523700F7BFF7A0979687D077FAF
:10021E00011208B98011E51AFB3395E0FA750C024C
:10022E007D077F011208FAE521B40313E523700F51
:10023E007BFF7A0979687D017F021208B98011E58A
:10024E001BFB3395E0FA750C027D017F021208FA52
:10025E00E521B40413E523700F7BFF7A0979687DDD
:10026E00047F021208B98011E51CFB3395E0FA7584
:10027E000C027D047F021208FAE521B40511E52374
:10028E00700D7BFF7A0979687D077F020208B9E558
:10029E001DFB3395E0FA750C027D077F021208FAFA
:0102AE00222D
:1006BD0012094212000312092D7BFF7A09796B7D15
:1006CD00017F011208B97BFF7A0979727D017F02E2
:1006DD001208B91202AF1207158F24E524B40116C2
:1006ED00E5227007752201F521800BE522B4010684
:1006FD00E4F5221202AFE5221460080470D8120549
:08070D00F880D312000E80CE2B
:03000B0002089157
:04089100C0E0C0D033
:10089500758A66758CFC0520E5207002051FB4E895
:0F08A5000EE51FB40309751F007520006323FFC4
:0508B400D0D0D0E032BD
:06097900C2A58F80D2A789
:08097F007F027EEFDEFEDFFCCB
:01098700224D
:0A098800C2A6120979C2A702097F76
:1008DC00CFCDCFCECCCE12048A7C007D0A12048AF6
:0408EC00ED2430FFC8
:0A08F000D2A6120979C2A702097FFF
:10091700AE07BE0104ED148006BE0209ED243F4474
:0609270080FF1209882286
:100942007F381209887F0C1209887F061209887F76
:04095200010209880D
:0A099200AC03120917AF040208F0CD
:0608B9008B088A09890A80
:1008BF00120917E4FDAB08AA09A90A8D82758300F6
:0C08CF0012044BFF60061208F00D80E9D7
:0108DB0022FA
:0C085E007F0AEA24FFFDE434FFFC7E006A
:08086A008E0D8F0E8C0F8D1016
:100872007F017E00E4FBEBC39510E50F6480F87402
:0E0882008098500AAC0DAD0E1204780B80E881
:010890002245
:0408FA008A0A8B0BD0
:1008FE00120917AA0CEAD39400400D12085EAC0A36
:08090E00AD0B1208DC1A80EDAC
:0109160022BE
:1007B300120917C3EA64809480400B7F2B1208F060
:1007C3008A168B17800E7F2D1208F0C3E49BF51752
:1007D300E49AF516AA15EAD39400400D12085EAC0C
:0907E30016AD171208DC1A80EDB6
:0107EC0022EA
:0407ED008A278B28A4
:1007F100120917AA29EAD3940040297F1012086030
:10080100AC27AD28CFCDCFCECCCE12048AEF540F7A
:10081100FEC3940AEE5004243080022437FF1208EC
:04082100F01A80D178
:0108250022B0
:040826008A2C8B2D60
:10082A00120917AA2EEAD394004028EA24FFFDE40D
:10083A0034FFFC7F027E0012086AAC2CAD2DCFCDAE
:10084A00CFCECCCE12048AEF54012430FF1208F026
:03085A001A80D22F
:01085D002278
:09099C0007181702091532320692
:05000300C2B5C2B622E7
:050661002DFDEE3CFC44
:060666008C088D09AB07B2
:10066C00D2B5E4FD7E007401A805088005C333CE25
:10067C0033CED8F9FFEBF582EF558224FF92B4D23A
:10068C00B6C2B60DBD08DDE4FD7E007401A80508F8
:10069C008005C333CE33CED8F9FFE5085EFEE509FD
:1006AC005F4E24FF92B4D2B6C2B60DBD08DBC2B504
:0106BC00221B
:02076700AD07DC
:10076900E4F9430501D2B5FB7E007401A8030880B2
:1007790005C333CE33CED8F9FFEDF582EF55822488
:10078900FF92B4C2B6D2B60BBB08DDE4FBD2B6C247
:10079900B630B40DA8037401088002C333D8FC42F3
:0907A900010BBB08E8C2B5AF0169
:0107B2002224
:1002AF00E4FDFC7F8E120666E51875F00A1204292C
:1002BF00FF3395E0FEEFC4F8540FC868FFEEC45447
:1002CF00F048FEE51875F00A120429ADF0ED3395EC
:1002DF00E0FCEF7F8C120661E51975F00A12042914
:1002EF00FF3395E0FEEFC4F8540FC868FFEEC45417
:1002FF00F048FEE51975F00A120429ADF0ED3395BB
:10030F00E0FCEF7F88120661E51A75F00A120429E6
:10031F00FF3395E0FEEFC4F8540FC868FFEEC454E6
:10032F00F048FEE51A75F00A120429ADF0ED339589
:10033F00E0FCEF2DFDEE3CFC7F86120666E51B759B
:10034F00F00A120429FF3395E0FEEFC4F8540FC8EA
:10035F0068FFEEC454F048FEE51B75F00A1204293D
:10036F00ADF0ED3395E0FCEF2DFDEE3CFC7F8412FC
:10037F000666E51C75F00A120429FF3395E0FEEFBF
:10038F00C4F8540FC868FFEEC454F048FEE51C755E
:10039F00F00A120429ADF0ED3395E0FCEF2DFDEEE0
:1003AF003CFC7F82120666E51D75F00A120429FFD8
:1003BF003395E0FEEFC4F8540FC868FFEEC454F055
:1003CF0048FEE51D75F00A120429ADF0ED3395E0F6
:1003DF00FCEF2DFDEE3CFC7F80120666E51E75F0EE
:1003EF000A120429FF3395E0FEEFC4F8540FC868D2
:1003FF00FFEEC454F048FEE51E75F00A120429AD55
:10040F00F0ED3395E0FCEF2DFDEE3CFC7F8A1206FC
:0A041F00667D807C007F8E02066679
:1004DF007F8C120767EFC4540F75F00AA4FEEF5418
:1004EF000F2EF5187F88120767EFC4540F75F00AA7
:1004FF00A4FEEF540F2EF5197F86120767EFC45431
:10050F000F75F00AA4FEEF540F2EF51A7F84120711
:10051F0067EFC4540F75F00AA4FEEF540F2EF51BAE
:10052F007F82120767EFC4540F75F00AA4FEEF54D1
:10053F000F2EF51C7F80120767EFC4540F75F00A5A
:10054F00A4FEEF540F2EF51D7F8A120767EFC454D8
:0C055F000F75F00AA4FEEF540F2EF51EDD
:01056B00226D
:10095600AE071FEE600B007E027DC7DDFEDEFC806B
:01096600EFA1
:01096700226D
:10071500E4F50820B1107F1412095630B1FD7F149D
:1007250012095675080120B0107F1412095630B011
:10073500FD7F1412095675080220B2107F141209A4
:100745005630B2FD7F1412095675080320B3107F89
:100755001412095630B3FD7F14120956750804AFFB
:01076500088B
:010766002270
:10092D005389F0438901758A66758CFCC28DD28C12
:05093D00D2A9D2AF2297
:0300000002056C8A
:0C056C00787FE4F6D8FD75812E0205B3FF
:10042900C2D530F707B2D563F0FF05F030E70CB25B
:10043900D5F4048463F0FF05F080018430D502F41B
:0204490004228B
:10044B00BB010CE58229F582E5833AF583E0225066
:10045B0006E92582F8E622BBFE06E92582F8E222B0
:0D046B00E58229F582E5833AF583E49322CA
:10047800EF8DF0A4A8F0CF8CF0A428CE8DF0A42E98
:02048800FE2252
:10048A00BC000BBE0029EF8DF084FFADF022E4CC56
:10049A00F875F008EF2FFFEE33FEEC33FCEE9DEC1F
:1004AA00984005FCEE9DFE0FD5F0E9E4CEFD22ED65
:1004BA00F8F5F0EE8420D21CFEADF075F008EF2FAF
:1004CA00FFED33FD4007985006D5F0F222C398FDA0
:0504DA000FD5F0EA223D
:100578000206BDE493A3F8E493A34003F68001F2D6
:1005880008DFF48029E493A3F85407240CC8C33384
:10059800C4540F4420C8834004F456800146F6DF53
:1005A800E4800B010204081020408090099CE47E3E
:1005B800019360BCA3FF543F30E509541FFEE49348
:1005C800A360010ECF54C025E060A840B8E493A30F
:1005D800FAE493A3F8E493A3C8C582C8CAC583CA3A
:1005E800F0A3C8C582C8CAC583CADFE9DEE780BEF2
:0109A5000051
:00000001FF
