:0E054C0020202D20202D0020203A20203A00D3
:10029A001205171205787BFF7A05794C7D017F01DB
:1002AA001204A37BFF7A0579537D017F021204A30E
:1002BA00120003120181E518FB7A00750C027D0118
:1002CA007F011204E4E519FB7A00750C027D047FB4
:1002DA00011204E4E51AFB7A00750C027D077F011E
:1002EA001204E4E51BFB7A00750C027D017F021201
:1002FA0004E4E51CFB7A00750C027D047F021204FB
:10030A00E4E51DFB7A00750C027D077F021204E406
:02031A0080A1C0
:06053D00C2A58F80D2A7C9
:080543007F027EEFDEFEDFFC0B
:01054B00228D
:0A055A00C2A612053DC2A702054328
:1004C600CFCDCFCECCCE12012C7C007D0A12012CD2
:0404D600ED2430FFE2
:0A04DA00D2A612053DC2A702054399
:10050100AE07BE0104ED148006BE0209ED243F448E
:0605110080FF12055A22D2
:100517007F3812055A7F0C12055A7F0612055A7F3B
:040527000102055A6E
:0A056400AC03120501AF040204DA33
:0604A3008B088A09890A9A
:1004A900120501E4FDAB08AA09A90A8D827583002A
:0C04B9001200EDFF60061204DA0D80E96D
:0104C5002214
:0C0470007F0AEA24FFFDE434FFFC7E005C
:08047C008E0D8F0E8C0F8D1008
:100484007F017E00E4FBEBC39510E50F6480F874F4
:0E0494008098500AAC0DAD0E12011A0B80E8D4
:0104A2002237
:0404E4008A0A8B0BEA
:1004E800120501AA0CEAD39400400D120470AC0A5C
:0804F800AD0B1204C61A80EDE1
:0105000022D8
:1003C500120501C3EA64809480400B7F2B1204DA86
:1003D5008A168B17800E7F2D1204DAC3E49BF5175E
:1003E500E49AF516AA15EAD39400400D120470ACF0
:0903F50016AD171204C61A80EDC2
:0103FE0022DC
:0403FF008A218B22A2
:10040300120501AA23EAD3940040297F1012047233
:10041300AC21AD22CFCDCFCECCCE12012CEF540FD9
:10042300FEC3940AEE5004243080022437FF1204E2
:04043300DA1A80D180
:0104370022A2
:040438008A268B275E
:10043C00120501AA28EAD394004028EA24FFFDE41F
:10044C0034FFFC7F027E0012047CAC26AD27CFCD9E
:10045C00CFCECCCE12012CEF54012430FF1204DA93
:03046C001A80D221
:01046F00226A
:09056E00071817020915323206C4
:05057800C2B5C2B6226D
:06031C0025F0FDEC3EFCA3
:060322008C088D09AB07F9
:10032800D2B5E4FD7E007401A805088005C333CE6C
:1003380033CED8F9FFEBF582EF558224FF92B4D281
:10034800B6C2B60DBD08DDE4FD7E007401A805083F
:100358008005C333CE33CED8F9FFE5085EFEE50944
:100368005F4E24FF92B4D2B6C2B60DBD08DBC2B54B
:010378002262
:02037900AD07CE
:10037B00E4F9430501D2B5FB7E007401A8030880A4
:10038B0005C333CE33CED8F9FFEDF582EF5582247A
:10039B00FF92B4C2B6D2B60BBB08DDE4FBD2B6C239
:1003AB00B630B40DA8037401088002C333D8FC42E5
:0903BB00010BBB08E8C2B5AF015B
:0103C4002216
:10000300E4FDFC7F8E120322E51875F00A8475F077
:1000130010A4FFAEF0E51875F00A84EF7F8C12038D
:100023001CE51975F00A8475F010A4FFAEF0E5190C
:1000330075F00A847C00EF7F8812031CE51A75F0C3
:100043000A8475F010A4FFAEF0E51A75F00A847CFB
:1000530000EF25F0FDEC3EFC7F86120322E51B75C5
:10006300F00A8475F010A4FFAEF0E51B75F00A8466
:100073007C00EF25F0FDEC3EFC7F84120322E51C9F
:1000830075F00A8475F010A4FFAEF0E51C75F00A54
:10009300847C00EF25F0FDEC3EFC7F82120322E519
:1000A3001D75F00A8475F010A4FFAEF0E51D75F020
:1000B3000A847C00EF25F0FDEC3EFC7F80120322D6
:1000C300E51E75F00A8475F010A4FFAEF0E51E7509
:1000D300F00A847C00EF25F0FDEC3EFC7F8A1203DE
:0A00E300227D807C007F8E02032244
:100181007F8C120379EFC4540F75F00AA4FEEF546B
:100191000F2EF5187F88120379EFC4540F75F00AFA
:1001A100A4FEEF540F2EF5197F86120379EFC45484
:1001B1000F75F00AA4FEEF540F2EF51A7F84120377
:1001C10079EFC4540F75F00AA4FEEF540F2EF51BFE
:1001D1007F82120379EFC4540F75F00AA4FEEF5425
:1001E1000F2EF51C7F80120379EFC4540F75F00AAE
:1001F100A4FEEF540F2EF51D7F8A120379EFC4542C
:0C0201000F75F00AA4FEEF540F2EF51E3E
:01020D0022CE
:10052B00AE071FEE600B007E027DC7DDFEDEFC809A
:01053B00EFD0
:01053C00229C
:0300000002020EEB
:0C020E00787FE4F6D8FD75812B020255C4
:1000ED00BB010CE58229F582E5833AF583E02250C8
:1000FD0006E92582F8E622BBFE06E92582F8E22212
:0D010D00E58229F582E5833AF583E493222B
:10011A00EF8DF0A4A8F0CF8CF0A428CE8DF0A42EF9
:02012A00FE22B3
:10012C00BC000BBE0029EF8DF084FFADF022E4CCB7
:10013C00F875F008EF2FFFEE33FEEC33FCEE9DEC80
:10014C00984005FCEE9DFE0FD5F0E9E4CEFD22EDC6
:10015C00F8F5F0EE8420D21CFEADF075F008EF2F10
:10016C00FFED33FD4007985006D5F0F222C398FD01
:05017C000FD5F0EA229E
:10021A0002029AE493A3F8E493A34003F68001F25E
:10022A0008DFF48029E493A3F85407240CC8C333E5
:10023A00C4540F4420C8834004F456800146F6DFB4
:10024A00E4800B010204081020408090056EE47ED1
:10025A00019360BCA3FF543F30E509541FFEE493A9
:10026A00A360010ECF54C025E060A840B8E493A370
:10027A00FAE493A3F8E493A3C8C582C8CAC583CA9B
:10028A00F0A3C8C582C8CAC583CADFE9DEE780BE53
:010577000083
:00000001FF
