:05001E0012000380FE4A
:03002300020026B2
:10002600C0E0C0F0C083C082C0D075D000C000C0A0
:1000360001C002C003C004C005C006C00730980C4A
:10004600E599F4F5A0AF9912008BC298D007D006B7
:10005600D005D004D003D002D001D000D0D0D082B9
:07006600D083D0F0D0E0329E
:10006D00AE071FEE600B007E027DC7DDFEDEFC805D
:01007D00EF93
:01007E00225F
:1000030075985075878053890F438920758BF475D4
:0B0013008DF4C28FD28ED2AFD2AC228F
:08008B008F993099FDC2992202
:0300000002007F7C
:0C007F00787FE4F6D8FD75810802001EB1
:00000001FF
