:0604F800C2A58F80D2A70F
:0804FE007F027EEFDEFEDFFC51
:0105060022D2
:0A051E00C2A61204F8C2A70204FEF0
:10048100CFCDCFCECCCE1201387C007D0A120138FF
:04049100ED2430FF27
:0A049500D2A61204F8C2A70204FE6A
:1004BC00AE07BE0104ED148006BE0209ED243F44D4
:0604CC0080FF12051E2254
:1004D2007F3812051E7F0C12051E7F0612051E7F35
:0404E2000102051EF0
:0A052800AC031204BCAF04020495FA
:06045E008B168A178918B5
:100464001204BCE4FDAB16AA17A9188D827583008B
:0C0474001200F9FF60061204950D80E9EB
:010480002259
:0C0400007F0AEA24FFFDE434FFFC7E00CC
:08040C008E1B8F1C8C1D8D1E40
:100414007F017E00E4FBEBC3951EE51D6480F87448
:0E0424008098500AAC1BAD1C1201260B80E81C
:0104320022A7
:04049F008A188B1913
:1004A3001204BCAA1AEAD39400400D120400AC183B
:0804B300AD191204811A80ED5D
:0104BB00221E
:100355001204BCC3EA64809480400B7F2B12049581
:100365008A248B25800E7F2D120495C3E49BF525E9
:10037500E49AF524AA23EAD39400400D120400ACB4
:0903850024AD251204811A80ED5B
:01038E00224C
:04038F008A288B2904
:100393001204BCAA2AEAD3940040297F1012040253
:1003A300AC28AD29CFCDCFCECCCE120138EF540F30
:1003B300FEC3940AEE5004243080022437FF120453
:0403C300951A80D136
:0103C7002213
:0403C8008A2D8B2EC1
:1003CC001204BCAA2FEAD394004028EA24FFFDE4CF
:1003DC0034FFFC7F027E0012040CAC2DAD2ECFCD71
:1003EC00CFCECCCE120138EF54012430FF1204953D
:0303FC001A80D292
:0103FF0022DB
:1004E600AE071FEE600B007E027DC7DDFEDEFC80E0
:0104F600EF16
:0104F70022E2
:0A0532003F065B4F666D7D077F6F8B
:0602D7008F088C098D0A5E
:1002DD00780B7C007D007BFF7A0579327E007F0AEA
:1002ED001200D3E50814B40800505490030675F0BD
:1002FD0003A4C58325F0C5837302031E02032202E6
:10030D00032602032A02032E02033602033E0203D2
:10031D0046D2A4800ED2A48012D2A48016D2A4807C
:10032D001AC2A4D2A3D2A28016C2A4D2A3C2A28002
:10033D000EC2A4C2A3D2A28006C2A4C2A3C2A2743A
:07034D000B250AF8E6F5801C
:010354002286
:0B0513004D61747269784B65793A0005
:100433001204D27BFF7A0579137D017F0112045EDA
:10044300E4F51512018D8F15E51560F4FB7A00753F
:090453001A027D017F0212049FD0
:02045C0080E539
:10018D00E4F5167590FFC2932097107F141204E6C4
:10019D003097FD7F141204E67516012096107F141A
:1001AD001204E63096FD7F141204E67516052095AF
:1001BD00107F141204E63095FD7F141204E67516B7
:1001CD00092094107F141204E63094FD7F1412045C
:1001DD00E675160D7590FFC2922097107F141204CC
:1001ED00E63097FD7F141204E67516022096107FF7
:1001FD00141204E63096FD7F141204E675160620DF
:10020D0095107F141204E63095FD7F141204E675E7
:10021D00160A2094107F141204E63094FD7F1412F8
:10022D0004E675160E7590FFC2912097107F14127B
:10023D0004E63097FD7F141204E675160320961020
:10024D007F141204E63096FD7F141204E67516072E
:10025D002095107F141204E63095FD7F141204E6EC
:10026D0075160B2094107F141204E63094FD7F1444
:10027D001204E675160F7590FFC2902097107F142B
:10028D001204E63097FD7F141204E67516042096CD
:10029D00107F141204E63096FD7F141204E67516D5
:1002AD00082095107F141204E63095FD7F1412047A
:1002BD00E675160C2094107F141204E63094FD7F21
:0902CD00141204E6751610AF16B8
:0102D6002205
:03000000020507EF
:0C050700787FE4F6D8FD75812F020433E4
:10000300E709F608DFFA8046E709F208DFFA803EDF
:1000130088828C83E709F0A3DFFA8032E309F608CC
:10002300DFFA8078E309F208DFFA807088828C8334
:10003300E309F0A3DFFA806489828A83E0A3F608E8
:10004300DFFA805889828A83E0A3F208DFFA804CC2
:1000530080D280FA80C680D4806980F28033801099
:1000630080A680EA809A80A880DA80E280CA803302
:1000730089828A83ECFAE493A3C8C582C8CCC5837A
:10008300CCF0A3C8C582C8CCC583CCDFE9DEE7804A
:100093000D89828A83E493A3F608DFF9ECFAA9F0C9
:1000A300EDFB2289828A83ECFAE0A3C8C582C8CC1F
:1000B300C583CCF0A3C8C582C8CCC583CCDFEADE38
:1000C300E880DB89828A83E493A3F208DFF980CC9A
:1000D30088F0EF60010E4E60C388F0ED2402B40493
:1000E3000050B9F582EB2402B4040050AF2323453A
:0600F3008223900053730C
:1000F900BB010CE58229F582E5833AF583E02250BC
:1001090006E92582F8E622BBFE06E92582F8E22205
:0D011900E58229F582E5833AF583E493221F
:10012600EF8DF0A4A8F0CF8CF0A428CE8DF0A42EED
:02013600FE22A7
:10013800BC000BBE0029EF8DF084FFADF022E4CCAB
:10014800F875F008EF2FFFEE33FEEC33FCEE9DEC74
:10015800984005FCEE9DFE0FD5F0E9E4CEFD22EDBA
:10016800F8F5F0EE8420D21CFEADF075F008EF2F04
:10017800FFED33FD4007985006D5F0F222C398FDF5
:050188000FD5F0EA2292
:00000001FF
