:10000E001203651203C88F23E523B401036326FF91
:10001E00E523B40207E4F525F524F527E52364036B
:10002E00702DE525FD7C007F011202D97F0512039C
:10003E008EE524FD7C007F021202D97F0512038E0D
:10004E00E527FD7C007F031202D97F0512038EE5A2
:10005E0023B404157F011202808F257F02120280C5
:10006E008F247F031202808F27E52575F00A84FD09
:10007E007C007F011203B6E52575F00A84E5F0FDDC
:10008E007C007F021203B67D0A7C007F031203B64A
:10009E00E52475F00A84FD7C007F041203B6E52486
:1000AE0075F00A84E5F0FD7C007F051203B67D0A2B
:1000BE007C007F061203B6E52775F00A84FD7C00EE
:1000CE007F071203B6E52775F00A84E5F0FD7C0084
:0800DE007F081203B6020011B5
:03000B000200E60A
:1000E600C0E0C0F0C083C082C0D075D000C000C0E0
:0D00F60001C002C003C004C005C006C00761
:10010300758A66758CFC051EE51E7002051D0520AB
:10011300E5207002051F0522E52270020521C3E5D3
:100123001E940AE51D94004009751D00751E0012FA
:10013300037AC3E5209402E51F94004009751F006C
:1001430075200012031BE5266029C3E522940AE506
:10015300219400401E0527752100752200E5279490
:100163006440107527000524E524943C400575245C
:030173000005255F
:10017600D007D006D005D004D003D002D001D000DD
:0B018600D0D0D082D083D0F0D0E03287
:10038E00AE071FEE600B007E027DC7DDFEDEFC8039
:01039E00EF6F
:01039F00223B
:0503C800E4AF2AF52A54
:0103CD00220D
:10034F00E4FF20B1010F20B0027F0220B2027F0331
:05035F0020B3027F0441
:010364002276
:10037A0085292812034F8F29E5286007E52970038C
:03038A0085282A99
:01038D00224D
:100336000909000A0A0A0A0A0A0A0A0B123F065B98
:080346004F666D7D077F6F40DB
:0903B600AE0574092FF8A6062219
:10021D00EF14B40800505490023275F003A4C58356
:10022D0025F0C5837302024A02024E0202520202F7
:10023D005602025A02026202026A020272D2A480BD
:10024D000ED2A48012D2A48016D2A4801AC2A4D237
:10025D00A3D2A28016C2A4D2A3C2A2800EC2A4C2EF
:10026D00A3D2A28006C2A4C2A3C2A274122DF8E624
:03027D00F58022E7
:10031B0074092508F8E6FD7C00AF0812021D0508DC
:0A032B00E508D394084003750801AB
:0103350022A5
:100365005389F0438901758A66758CFCC28DD28CE0
:05037500D2A9D2AF2265
:1002D9008F2B8C2C8D2D1203BF7FA01202B012031D
:1002E900A0AF2B1202B01203A0AF2D1202B012035D
:0402F900A00200035C
:020280008F2BC2
:100282001203BF7FA01202B01203A0AF2B1202B062
:100292001203A01203BF7FA11202B01203A0120226
:0D02A200FD8F2C7F011203AC120003AF2C66
:0102AF00222C
:0903BF00D2A0D2A1C2A0C2A12269
:07000300C2A0D2A1D2A0228D
:0202B000AD0798
:1002B200E4FB7E007480A803088006CEA2E713CE7A
:1002C20013D8F8FFEDF582EF558224FF92A0D2A158
:0602D200C2A10BBB08DC19
:0102D8002203
:1002FD00E4FFFED2A0D2A130A00DA8067480088024
:0D030D0002C313D8FC4207C2A10EBE08E6D1
:01031A0022C0
:0A03AC00EF24FF92A0D2A1C2A1220B
:0B03A000D2A0D2A1A2A0E433FFC2A1B2
:0103AB00222F
:0300000002019169
:0C019100787FE4F6D8FD75812D0201D8BE
:10019D0002000EE493A3F8E493A34003F68001F26A
:1001AD0008DFF48029E493A3F85407240CC8C33363
:1001BD00C4540F4420C8834004F456800146F6DF32
:1001CD00E4800B0102040810204080900336E47E89
:1001DD00019360BCA3FF543F30E509541FFEE49327
:1001ED00A360010ECF54C025E060A840B8E493A3EE
:1001FD00FAE493A3F8E493A3C8C582C8CAC583CA19
:10020D00F0A3C8C582C8CAC583CADFE9DEE780BED0
:01034E0000AE
:00000001FF
