:06000300434C4F434B008B
:1000B8001202E71202D27BFF7A0079037D017F01E9
:1000C80012025EAE13AF14E4FCFD7B807A51790115
:1000D800F8C31200A27004F513F514AE13AF147C24
:1000E8000E7D1012004D8F15AE13AF147C007D3CB1
:1000F80012004D7C007D3C12004D8D16AE13AF14DE
:100108007C007D3C12004D8D17E515FB7A00750CBF
:10011800027D017F0212029F7B3A7D037F02120358
:1001280032E516FB7A00750C027D047F0212029FED
:100138007B3A7D067F02120332E517FB7A00750CC5
:0B014800027D077F0212029F0200CB25
:03000B00020231BD
:04023100C0E0C0D099
:10023500758A66758CFC0512E51270020511B4E825
:1002450013E511B4030E7511007512000514E514BC
:04025500700205131B
:05025900D0D0D0E0321E
:1002FB00AE071FEE600B007E027DC7DDFEDEFC80CD
:01030B00EF02
:01030C0022CE
:1002D2005389F0438901758A66758CFCC28DD28C74
:0502E200D2A9D2AF22F9
:06030D00C2A58F80D2A7FB
:080313007F027EEFDEFEDFFC3D
:01031B0022BF
:0A032800C2A612030DC2A7020313C0
:10028100CFCDCFCECCCE12004D7C007D0A12004DD9
:04029100ED2430FF29
:0A029500D2A612030DC2A702031344
:1002BC00AE07BE0104ED148006BE0209ED243F44D6
:0602CC0080FF120328224E
:1002E7007F381203287F0C1203287F061203287F0A
:0402F70001020328D5
:0A033200AC031202BCAF04020295F6
:06025E008B088A09890AE1
:100264001202BCE4FDAB08AA09A90A8D82758300B9
:0C02740012000EFF60061202950D80E9DA
:01028000225B
:0C01FE007F0AEA24FFFDE434FFFC7E00D1
:08020A008E0D8F0E8C0F8D107C
:100212007F017E00E4FBEBC39510E50F6480F87468
:0E0222008098500AAC0DAD0E12003B0B80E828
:0102300022AB
:04029F008A0A8B0B31
:1002A3001202BCAA0CEAD39400400D1201FEAC0A60
:0802B300AD0B1202811A80ED6F
:0102BB002220
:100153001202BCC3EA64809480400B7F2B12029589
:100163008A1D8B1E800E7F2D120295C3E49BF51E04
:10017300E49AF51DAA1CEAD39400400D1201FEACCB
:090183001DAD1E1202811A80ED6F
:01018C002250
:04018D008A218B2216
:100191001202BCAA23EAD3940040297F1012020064
:1001A100AC21AD22CFCDCFCECCCE12004DEF540F2E
:1001B100FEC3940AEE5004243080022437FF120259
:0401C100951A80D13A
:0101C5002217
:0401C6008A268B27D3
:1001CA001202BCAA28EAD394004028EA24FFFDE4DC
:1001DA0034FFFC7F027E0012020AAC26AD27CFCD87
:1001EA00CFCECCCE12004DEF54012430FF1202952F
:0301FA001A80D296
:0101FD0022DF
:0300000002031CDC
:0C031C00787FE4F6D8FD7581280200B857
:10000E00BB010CE58229F582E5833AF583E02250A7
:10001E0006E92582F8E622BBFE06E92582F8E222F1
:0D002E00E58229F582E5833AF583E493220B
:10003B00EF8DF0A4A8F0CF8CF0A428CE8DF0A42ED9
:02004B00FE2293
:10004D00BC000BBE0029EF8DF084FFADF022E4CC97
:10005D00F875F008EF2FFFEE33FEEC33FCEE9DEC60
:10006D00984005FCEE9DFE0FD5F0E9E4CEFD22EDA6
:10007D00F8F5F0EE8420D21CFEADF075F008EF2FF0
:10008D00FFED33FD4007985006D5F0F222C398FDE1
:05009D000FD5F0EA227E
:1000A200EB9FF5F0EA9E42F0E99D42F0EC6480C8D5
:0600B20064809845F02275
:00000001FF
